{
  "_format": "hh-sol-artifact-1",
  "contractName": "FlashBotsUniswapQuery",
  "sourceName": "contracts/UniswapFlashQuery.sol",
  "abi": [
    {
      "inputs": [
        {
          "internalType": "contract UniswapV2Factory",
          "name": "_uniswapFactory",
          "type": "address"
        },
        {
          "internalType": "uint256",
          "name": "_start",
          "type": "uint256"
        },
        {
          "internalType": "uint256",
          "name": "_stop",
          "type": "uint256"
        }
      ],
      "name": "getPairsByIndexRange",
      "outputs": [
        {
          "internalType": "address[3][]",
          "name": "",
          "type": "address[3][]"
        }
      ],
      "stateMutability": "view",
      "type": "function"
    },
    {
      "inputs": [
        {
          "internalType": "contract IUniswapV2Pair[]",
          "name": "_pairs",
          "type": "address[]"
        }
      ],
      "name": "getReservesByPairs",
      "outputs": [
        {
          "internalType": "uint256[3][]",
          "name": "",
          "type": "uint256[3][]"
        }
      ],
      "stateMutability": "view",
      "type": "function"
    }
  ],
  "bytecode": "0x608060405234801561000f575f80fd5b50610ef88061001d5f395ff3fe608060405234801561000f575f80fd5b5060043610610034575f3560e01c80634dbf0f3914610038578063ab2217e414610068575b5f80fd5b610052600480360381019061004d9190610715565b610098565b60405161005f91906108b6565b60405180910390f35b610082600480360381019061007d919061096b565b610286565b60405161008f9190610b08565b60405180910390f35b60605f8383905067ffffffffffffffff8111156100b8576100b7610b28565b5b6040519080825280602002602001820160405280156100f157816020015b6100de610668565b8152602001906001900390816100d65790505b5090505f5b8484905081101561027b5784848281811061011457610113610b55565b5b90506020020160208101906101299190610bbd565b73ffffffffffffffffffffffffffffffffffffffff16630902f1ac6040518163ffffffff1660e01b8152600401606060405180830381865afa158015610171573d5f803e3d5ffd5b505050506040513d601f19601f820116820180604052508101906101959190610c64565b826dffffffffffffffffffffffffffff169250816dffffffffffffffffffffffffffff1691508063ffffffff1690508484815181106101d7576101d6610b55565b5b60200260200101515f600381106101f1576101f0610b55565b5b6020020185858151811061020857610207610b55565b5b602002602001015160016003811061022357610222610b55565b5b6020020186868151811061023a57610239610b55565b5b602002602001015160026003811061025557610254610b55565b5b60200201838152508381525083815250505050808061027390610ce1565b9150506100f6565b508091505092915050565b60605f8473ffffffffffffffffffffffffffffffffffffffff1663574f2ba36040518163ffffffff1660e01b8152600401602060405180830381865afa1580156102d2573d5f803e3d5ffd5b505050506040513d601f19601f820116820180604052508101906102f69190610d3c565b905080831115610304578092505b83831015610347576040517f08c379a000000000000000000000000000000000000000000000000000000000815260040161033e90610dc1565b60405180910390fd5b5f84846103549190610ddf565b90505f8167ffffffffffffffff81111561037157610370610b28565b5b6040519080825280602002602001820160405280156103aa57816020015b61039761068a565b81526020019060019003908161038f5790505b5090505f5b8281101561065a575f8873ffffffffffffffffffffffffffffffffffffffff16631e3dd18b838a6103e09190610e12565b6040518263ffffffff1660e01b81526004016103fc9190610e54565b602060405180830381865afa158015610417573d5f803e3d5ffd5b505050506040513d601f19601f8201168201806040525081019061043b9190610e97565b90508073ffffffffffffffffffffffffffffffffffffffff16630dfe16816040518163ffffffff1660e01b8152600401602060405180830381865afa158015610486573d5f803e3d5ffd5b505050506040513d601f19601f820116820180604052508101906104aa9190610e97565b8383815181106104bd576104bc610b55565b5b60200260200101515f600381106104d7576104d6610b55565b5b602002019073ffffffffffffffffffffffffffffffffffffffff16908173ffffffffffffffffffffffffffffffffffffffff16815250508073ffffffffffffffffffffffffffffffffffffffff1663d21220a76040518163ffffffff1660e01b8152600401602060405180830381865afa158015610557573d5f803e3d5ffd5b505050506040513d601f19601f8201168201806040525081019061057b9190610e97565b83838151811061058e5761058d610b55565b5b60200260200101516001600381106105a9576105a8610b55565b5b602002019073ffffffffffffffffffffffffffffffffffffffff16908173ffffffffffffffffffffffffffffffffffffffff1681525050808383815181106105f4576105f3610b55565b5b602002602001015160026003811061060f5761060e610b55565b5b602002019073ffffffffffffffffffffffffffffffffffffffff16908173ffffffffffffffffffffffffffffffffffffffff168152505050808061065290610ce1565b9150506103af565b508093505050509392505050565b6040518060600160405280600390602082028036833780820191505090505090565b6040518060600160405280600390602082028036833780820191505090505090565b5f80fd5b5f80fd5b5f80fd5b5f80fd5b5f80fd5b5f8083601f8401126106d5576106d46106b4565b5b8235905067ffffffffffffffff8111156106f2576106f16106b8565b5b60208301915083602082028301111561070e5761070d6106bc565b5b9250929050565b5f806020838503121561072b5761072a6106ac565b5b5f83013567ffffffffffffffff811115610748576107476106b0565b5b610754858286016106c0565b92509250509250929050565b5f81519050919050565b5f82825260208201905092915050565b5f819050602082019050919050565b5f60039050919050565b5f81905092915050565b5f819050919050565b5f819050919050565b6107b8816107a6565b82525050565b5f6107c983836107af565b60208301905092915050565b5f602082019050919050565b6107ea81610789565b6107f48184610793565b92506107ff8261079d565b805f5b8381101561082f57815161081687826107be565b9650610821836107d5565b925050600181019050610802565b505050505050565b5f61084283836107e1565b60608301905092915050565b5f602082019050919050565b5f61086482610760565b61086e818561076a565b93506108798361077a565b805f5b838110156108a95781516108908882610837565b975061089b8361084e565b92505060018101905061087c565b5085935050505092915050565b5f6020820190508181035f8301526108ce818461085a565b905092915050565b5f73ffffffffffffffffffffffffffffffffffffffff82169050919050565b5f6108ff826108d6565b9050919050565b5f610910826108f5565b9050919050565b61092081610906565b811461092a575f80fd5b50565b5f8135905061093b81610917565b92915050565b61094a816107a6565b8114610954575f80fd5b50565b5f8135905061096581610941565b92915050565b5f805f60608486031215610982576109816106ac565b5b5f61098f8682870161092d565b93505060206109a086828701610957565b92505060406109b186828701610957565b9150509250925092565b5f81519050919050565b5f82825260208201905092915050565b5f819050602082019050919050565b5f60039050919050565b5f81905092915050565b5f819050919050565b610a0a816108f5565b82525050565b5f610a1b8383610a01565b60208301905092915050565b5f602082019050919050565b610a3c816109e4565b610a4681846109ee565b9250610a51826109f8565b805f5b83811015610a81578151610a688782610a10565b9650610a7383610a27565b925050600181019050610a54565b505050505050565b5f610a948383610a33565b60608301905092915050565b5f602082019050919050565b5f610ab6826109bb565b610ac081856109c5565b9350610acb836109d5565b805f5b83811015610afb578151610ae28882610a89565b9750610aed83610aa0565b925050600181019050610ace565b5085935050505092915050565b5f6020820190508181035f830152610b208184610aac565b905092915050565b7f4e487b71000000000000000000000000000000000000000000000000000000005f52604160045260245ffd5b7f4e487b71000000000000000000000000000000000000000000000000000000005f52603260045260245ffd5b5f610b8c826108f5565b9050919050565b610b9c81610b82565b8114610ba6575f80fd5b50565b5f81359050610bb781610b93565b92915050565b5f60208284031215610bd257610bd16106ac565b5b5f610bdf84828501610ba9565b91505092915050565b5f6dffffffffffffffffffffffffffff82169050919050565b610c0a81610be8565b8114610c14575f80fd5b50565b5f81519050610c2581610c01565b92915050565b5f63ffffffff82169050919050565b610c4381610c2b565b8114610c4d575f80fd5b50565b5f81519050610c5e81610c3a565b92915050565b5f805f60608486031215610c7b57610c7a6106ac565b5b5f610c8886828701610c17565b9350506020610c9986828701610c17565b9250506040610caa86828701610c50565b9150509250925092565b7f4e487b71000000000000000000000000000000000000000000000000000000005f52601160045260245ffd5b5f610ceb826107a6565b91507fffffffffffffffffffffffffffffffffffffffffffffffffffffffffffffffff8203610d1d57610d1c610cb4565b5b600182019050919050565b5f81519050610d3681610941565b92915050565b5f60208284031215610d5157610d506106ac565b5b5f610d5e84828501610d28565b91505092915050565b5f82825260208201905092915050565b7f73746172742063616e6e6f7420626520686967686572207468616e2073746f705f82015250565b5f610dab602083610d67565b9150610db682610d77565b602082019050919050565b5f6020820190508181035f830152610dd881610d9f565b9050919050565b5f610de9826107a6565b9150610df4836107a6565b9250828203905081811115610e0c57610e0b610cb4565b5b92915050565b5f610e1c826107a6565b9150610e27836107a6565b9250828201905080821115610e3f57610e3e610cb4565b5b92915050565b610e4e816107a6565b82525050565b5f602082019050610e675f830184610e45565b92915050565b610e76816108f5565b8114610e80575f80fd5b50565b5f81519050610e9181610e6d565b92915050565b5f60208284031215610eac57610eab6106ac565b5b5f610eb984828501610e83565b9150509291505056fea26469706673582212207c28792aec2f57f62546d0a732a8ed47908f00c046e788e0b07699ad4d75320464736f6c63430008140033",
  "linkReferences": {},
  "deployedLinkReferences": {}
}